:020000040800F2
:1000000010E60020E9010008E4010008E40100080E
:10001000E4010008E4010008E40100080000000019
:10002000000000000000000000000000E4010008E3
:10003000E40100080000000037440008694500089A
:10004000951A0008E4010008E4010008E401000832
:10005000E4010008E4010008E4010008E4010008EC
:10006000E4010008E4010008E4010008E4010008DC
:10007000E4010008E4010008E4010008E4010008CC
:10008000252E0008E4010008E4010008E40100084E
:10009000E4010008E4010008E4010008E4010008AC
:1000A000E4010008E4010008E4010008E40100089C
:1000B000E4010008E4010008E4010008E40100088C
:1000C000E4010008E4010008E4010008E40100087C
:1000D000E4010008E4010008E4010008E40100086C
:1000E000E4010008E4010008E4010008E40100085C
:1000F000E4010008E4010008E4010008E40100084C
:10010000E40100081D300008E4010008E4010008D3
:10011000E4010008E4010008E4010008E40100082B
:10012000E4010008E4010008E40100082D300008A3
:1001300000000000000000000000000000000000BF
:1001400000000000000000000000000000000000AF
:10015000000000000000000000000000000000009F
:10016000000000000000000000000000000000008F
:10017000000000000000000000000000000000007F
:10018000000000000000000000000000000000006F
:10019000000000000000000000000000000000005F
:1001A000000000000000000000000000000000004F
:1001B000000000000000000000000000000000003F
:1001C000000000000000000000000000000000002F
:1001D000000000000000000000000000000000001F
:1001E00000000000FEE7000038B5164D164B9D429A
:1001F00010D91C4622686168A368002B07DD043A09
:1002000051F8040B42F8040F043B002BF8DC0C34CB
:10021000AC42EFD30D4C0E4B9C420DD918460268F0
:100220004368002B05DD002142F8041B043B8B4290
:10023000F9DC0830A042F2D302F0DEFC01F032FC1F
:1002400038BD00BF703106086431060878310608F1
:10025000703106082DE9F04F9BB083460F2937D047
:1002600002D8012906D0B1E0102900F0AC804E2957
:1002700022D0ABE000255A4B1D600124594B1C6075
:1002800016A960F031F8079506954FF48053059351
:10029000CDF810B020230393442302930823019345
:1002A000189B503B00934FF080734F4A4F492846AC
:1002B00061F01EFD204690E093B2B3F5805F40F000
:1002C0008980130C40F088805FF0F0F9002084E012
:1002D00016A960F009F810A9584661F00DF8064615
:1002E000DDF86080DDF864A03C230E930F93BAF133
:1002F000000F27DD0027B94609F00105B8F1000F0E
:100300001ADD002415F0010F19BFB423962296239D
:1003100064221146304653F003FD0146304653F047
:10032000F5FD0C940D970CA9304651F0A1FC013558
:100330000E9B1C44A045E5DC09F101090F9B1F44FD
:10034000BA45D9DC264B1968304652F023F9254BC3
:100350001968304653F012FE8021304653F01AFEE1
:1003600000231A469621304653F0DAFC0146304607
:1003700053F0CCFD6E2308936423099346230A931C
:1003800000240B944FF4B4730C930899099A0A9BB8
:100390000A980B9D0C9F029701950C3000903046F7
:1003A0004FF0B4FF4FF48773099350230A930899D1
:1003B000099A0A9B304650F001F910A9584661F09D
:1003C000F5FB204609E061F0F3FD06E0584661F0D8
:1003D00059FE02E0002000E000201BB0BDE8F08FD5
:1003E0008C000020880000206C04000874040008C1
:1003F00030B597B01A4B0E9303230F93194B1093FC
:10040000002411941294139414941594204654F0DB
:100410005BFC0546012054F057FC079406940594B4
:10042000049403900295019400944FF032730E4AA5
:100430000EA9204661F05CFC0546214661F090FA69
:1004400005E009A85FF008FB09A85FF0FBF9294661
:1004500009A85FF0DBFA0028F3D117B030BD00BF68
:100460000000FEFF55020008840400084F004B0006
:100470000000000042005500540054004F004E00A0
:10048000000000004700550049005F00440045009F
:100490004D004F003A0044007200610077004200B6
:1004A00061007300650000002DE9F04397B0044639
:1004B000102900F049821D4609D8022900F048821F
:1004C0000F2900F03882012940F0468209E0912985
:1004D00000F05E81922900F01C824E2940F03C829F
:1004E0005CE10CA95FF000FFDFF8E48300260796CB
:1004F000069641F2011305930494782303934FF079
:10050000A009CDF80890082701970097C84BC94A61
:100510004146304661F0ECFB0546C74B4FF0FF32D9
:100520004FF4C0715FF05AF9C44B4FF0FF324FF4F3
:10053000C07128465FF052F9C14B4FF0FF324FF4C3
:10054000C07128465FF04AF9BE4B4FF0FF324FF4BE
:10055000C07128465FF042F9BB4B4FF0FF324FF4B9
:10056000C07128465FF03AF9B84B4FF0FF324FF4B4
:10057000C07128465FF032F9B54B4FF0FF324FF4AF
:10058000C07128465FF02AF9B24B4FF0FF324FF4AA
:10059000C07128465FF022F9AF4B4FF0FF324FF4A5
:1005A000C07128465FF01AF9AC4B4FF0FF324FF4A0
:1005B000C07128465FF012F9A94B4FF0FF324FF49B
:1005C000C07128465FF00AF9282301224FF4D07148
:1005D00028465FF003F93C2303224FF4D0712846EC
:1005E0005FF0FCF80796069641F202130593049417
:1005F000CDF80C90B42302930197C82300934FF0D9
:100600008073984A4146304661F072FB0546964B2E
:100610004FF0FF324FF4C0715FF0E0F8934B4FF0B2
:10062000FF324FF4C07128465FF0D8F8904B4FF07E
:10063000FF324FF4C07128465FF0D0F88D4B4FF079
:10064000FF324FF4C07128465FF0C8F88A4B4FF074
:10065000FF324FF4C07128465FF0C0F8874B4FF06F
:10066000FF324FF4C07128465FF0B8F8844B4FF06A
:10067000FF324FF4C07128465FF0B0F8814B4FF065
:10068000FF324FF4C07128465FF0A8F87E4B4FF060
:10069000FF324FF4C07128465FF0A0F87B4B4FF05B
:1006A000FF324FF4C07128465FF098F8784B4FF056
:1006B000FF324FF4C07128465FF090F80796069617
:1006C00041F203130593049464230393CDF8089037
:1006D0009623019300976F4B6F4A4146304661F075
:1006E00007FB05466D4B32464FF4C0715FF076F85C
:1006F0006B4B01224FF4C07128465FF06FF8694BD5
:1007000002224FF4C07128465FF068F8664B03225E
:100710004FF4C07128465FF061F8644B04224FF437
:10072000C07128465FF05AF8614B05224FF4C07142
:1007300028465FF053F85F4B06224FF4C0712846FD
:100740005FF04CF85C4B07224FF4C07128465FF015
:1007500045F85A4B3A464FF4C07128465FF03EF8D0
:10076000574B09224FF4C07128465FF037F8554BBC
:100770000A224FF4C07128465FF030F80096022339
:100780004FF47A72012120465FF018FA0120EDE063
:1007900011464D4801F004FD0020E7E05A6841F29F
:1007A00001139A4240F0DD80AB68822B0AD100230E
:1007B0001A464FF4C47128685FF010F801464348A8
:1007C00001F0EEFCAB6863B91A464FF4C4712868B7
:1007D0005FF004F8002302464FF4D17128685EF000
:1007E000FDFFAB68832B40F0BE8041F20111204633
:1007F0005FF0B6FF044608A95FF076FD0CAB00225F
:100800004FF4CC7120465EF0E9FF0D9B022B61DDB9
:1008100000231A4640F28B1120465EF0DFFF0023D2
:10082000421E4FF4D67120465EF0D8FF6FE000BF45
:1008300010808001000A0008200A0008340A00081D
:10084000480A00085C0A0008700A0008840A0008C8
:10085000980A0008AC0A0008C00A0008D40A000878
:10086000E80A0008FC0A0008100B0008240B000826
:10087000380B00084C0B0008600B0008740B0008D4
:10088000880B00089C0B0008B00B0008C40B000884
:10089000D80B000810008001EC0B0008000C0008C9
:1008A000140C0008280C00083C0C0008500C000830
:1008B000640C0008780C00088C0C0008A00C0008E0
:1008C000B40C0008C80C00080C0D0008200D00082E
:1008D000100A000800231A4640F28B1120465EF0F1
:1008E0007DFF0CAB421E4FF4CC7120465EF076FFCC
:1008F0000F9B0D9A1A440B9B083B9A4207DA4FF65E
:10090000FF7300224FF4D67120465EF067FF00208F
:100910002CE092B241F203139A4226D16FF07F434A
:100920002B604FF40243AB60124B6B604FF44853A3
:10093000EB6001201AE010A960F0DEFC10A920464F
:1009400061F034F9012011E061F032FB01200DE08B
:100950005EF0D0FE012009E02B46204661F092FBBC
:1009600004E0002002E0002000E0002017B0BDE815
:10097000F08300BF3296320030B597B05FF002FDD1
:10098000012200215FF0E0FD194B0E9303230F932A
:10099000184B1093002511951295139514951595E4
:1009A00007950695059504954FF4B47303934FF49A
:1009B000C87302931E230193142300930E4B0F4A16
:1009C0000EA9284661F094F90446294660F0C8FF54
:1009D00005E009A85FF040F809A85EF033FF214662
:1009E00009A85FF013F80028F3D117B030BD00BF9D
:1009F0000000FEFFA90400080000E882DC0C0008EB
:100A00004C0069007300740062006F007800000001
:100A10004C0049005300540042004F0058000000B1
:100A20004900740065006D002D0031002D0030007C
:100A3000000000004900740065006D002D003100C9
:100A40002D003100000000004900740065006D00B9
:100A50002D0031002D00320000000000490074001C
:100A600065006D002D0031002D00330000000000F6
:100A70004900740065006D002D0031002D00340028
:100A8000000000004900740065006D002D00310079
:100A90002D003500000000004900740065006D0065
:100AA0002D0031002D0036000000000049007400C8
:100AB00065006D002D0031002D00370000000000A2
:100AC0004900740065006D002D0031002D003800D4
:100AD000000000004900740065006D002D00310029
:100AE0002D003900000000004900740065006D0011
:100AF0002D0031002D003100300000004C00690055
:100B00007300740062006F00780032000000000083
:100B10004900740065006D002D0032002D0030008A
:100B2000000000004900740065006D002D003200D7
:100B30002D003100000000004900740065006D00C8
:100B40002D0032002D00320000000000490074002A
:100B500065006D002D0032002D0033000000000004
:100B60004900740065006D002D0032002D00340036
:100B7000000000004900740065006D002D00320087
:100B80002D003500000000004900740065006D0074
:100B90002D0032002D0036000000000049007400D6
:100BA00065006D002D0032002D00370000000000B0
:100BB0004900740065006D002D0032002D003800E2
:100BC000000000004900740065006D002D00320037
:100BD0002D003900000000004900740065006D0020
:100BE0002D0032002D003100300000004C00690063
:100BF0007300740062006F00780033000000000092
:100C00004900740065006D002D0033002D00300098
:100C1000000000004900740065006D002D003300E5
:100C20002D003100000000004900740065006D00D7
:100C30002D0033002D003200000000004900740038
:100C400065006D002D0033002D0033000000000012
:100C50004900740065006D002D0033002D00340044
:100C6000000000004900740065006D002D00330095
:100C70002D003500000000004900740065006D0083
:100C80002D0033002D0036000000000049007400E4
:100C900065006D002D0033002D00370000000000BE
:100CA0004900740065006D002D0033002D003800F0
:100CB000000000004900740065006D002D00330045
:100CC0002D003900000000004900740065006D002F
:100CD0002D0033002D00310030000000470055008A
:100CE00049002000440065006D006F0020002D00C9
:100CF00020004C0069007300740062006F007800EF
:100D000020004C006F006F0070000000574D5F54D2
:100D1000494D45523A2069643A25640D0A000000A5
:100D20004C697374626F782053454C5F4348414E61
:100D300047453A25642E0D0A000000002DE9F043D6
:100D4000CBB007460D4614461E4642A928465FF022
:100D5000CBFA3146384652F0D7FF0146384653F0B9
:100D6000D5F842A9384650F083FF2146384652F064
:100D7000CBFF0146384653F0C1F800231A464FF422
:100D8000C77128465EF02AFD044600231A4640F249
:100D90008B1128465EF022FD804600231A464FF450
:100DA000C47128465EF01AFD81461C4B196838460E
:100DB00052F0F2FC44452EDA264646AB22464FF46A
:100DC000CC7128465EF00AFD459B479A9A4222DC88
:100DD000A1450BD15299384652F096FF014638464C
:100DE00053F094F846A9384650F042FF02AB324621
:100DF00040F2891128465EF0F1FC002301931A238A
:100E0000009346AB4FF0FF3202A9384651F008FA82
:100E10000134A045D0DC4BB0BDE8F0839000002049
:100E20002DE9F04FADF51B7D099016461C462B2988
:100E300000F0C88112D80F2900F0268406D80129B5
:100E400027D0022900F0738400F081BC102900F043
:100E50006684142900F0818400F079BC922900F0A6
:100E6000B18107D84E2900F04981912900F0DA803C
:100E700000F06DBC40F20123994200F0278140F25E
:100E80000223994200F02A81B1F5007F40F05F848F
:100E90002CE1B64852F08AFEB54B1860B54852F0C6
:100EA00085FEB54B186090A9099D28465FF01CFA95
:100EB00000240794069441F20113059304958C23B2
:100EC0000393A0230293082301930093AB4BAC4AF6
:100ED000AC49204660F00CFF804650AF2246AA493C
:100EE00038464DF037FB3E463B464FF0FF324FF45D
:100EF000C07140465EF072FC0134642CEDD10F23CA
:100F000001224FF4D07140465EF068FC3223032288
:100F10004FF4D07140465EF061FC0023032240F2A2
:100F2000971140465EF05AFC00240794069441F263
:100F300002130593099B049378230393962302934A
:100F400008230193C8230093904B914A8D49204672
:100F500060F0CEFE074622468E4950A84DF0FAFAC0
:100F600033464FF0FF324FF4C07138465EF036FC26
:100F70000134642CEFD100240794069441F203134A
:100F80000593099B049378230393A0230293019371
:100F9000082300937D4B804A7A49204660F0A8FEE2
:100FA000074622467D4950A84DF0D4FA33464FF00B
:100FB000FF324FF4C07138465EF010FC0134642CEF
:100FC000EFD100240794069441F204130593099B82
:100FD000049378230393A02302930193C8230093DF
:100FE0006F4B704A6749204660F082FE07462246F2
:100FF0006D4950A84DF0AEFA334600224FF4C0714F
:1010000038465EF0EBFB0134642CF0D10023674AD4
:101010001360009302233222012109985EF0CEFD75
:101020000120A1E301205DF019FF002848D141F221
:10103000031109985FF094FB054600231A464FF40C
:10104000C4715EF0CBFB044610A928465FF04CF952
:1010500090AB22464FF4CC7128465EF0BFFB939CC8
:1010600004EBD474919B03EB6404139B03EBD373E5
:10107000581084420EDA201A21F0B4FC939A93108F
:101080009842CCBF04230123012240F2AB11284631
:101090005EF0A4FB139B03EBD373581084420FDD67
:1010A000201A21F09FFC939B9B109842CCBF0423F5
:1010B00001235B42012240F2AB1128465EF08EFB19
:1010C00031463B4801F06CF800204DE3A3B2220CFE
:1010D0003146384801F064F8002045E3A3B2220C01
:1010E0003146354801F05CF800203DE3A3B2220C04
:1010F0003146324801F054F8002035E35A6841F295
:1011000001139A4240F02B83A368822B1BD100234A
:101110001A464FF4C47120685EF060FB0546234E0A
:101120001A2332684FF4D07120685EF057FB2423F5
:101130002A464FF4D07120685EF050FB3560294696
:101140001F4801F02DF8A368002B40F00A831A46CF
:101150004FF4C47120685EF041FB002302464FF457
:10116000D17120685EF03AFB0020FDE270C20008F9
:1011700098000020C03601089000002010808201F5
:10118000000A0008100A00081C180008100082015C
:10119000FC0A000834180008EC0B00084C18000882
:1011A000100082416418000878180008940000209C
:1011B0000C0D0008CC180008F418000818190008D5
:1011C000200D0008274641F201139E4240F089801D
:1011D0002668A568954B1968284652F0DDFA642305
:1011E0003C223221284652F09BFD0146284652F00F
:1011F0008DFE04F11401284650F03AFD00231A46F2
:101200004FF4C77130465EF0E9FA044600231A46EF
:1012100040F28B1130465EF0E1FA804600231A4618
:101220004FF4C47130465EF0D9FA8146444556DA2F
:10123000A2460CAB22464FF4CC7130465EF0CEFA9B
:101240000D9A3B6A9A424ADCA14524D1DC231A4616
:101250001946284652F064FD834614231A46DC21C1
:10126000284652F05DFD0123009303465A460CA91F
:10127000284650F005FDFA231A461946284652F032
:101280004FFD0146284652F039FE684B1968284642
:1012900052F082FA0EE00023FF220A21284652F083
:1012A0003FFD0146284652F029FE614B1968284649
:1012B00052F072FA10AB524640F2891130465EF09D
:1012C0008DFA00230193122300930CAB4FF0FF32F1
:1012D00010A9284650F0A4FF0134A045A8DC012045
:1012E00042E241F202139E4240F0A880D4F800800E
:1012F000226AE169002052F0A1FD0646E6231A4663
:10130000194652F00DFD05463223002211463046A3
:1013100052F006FD0123009303462A4604F114010E
:10132000304650F0ADFC00231A464FF4C7714046DA
:101330005EF054FA054600231A4640F28B114046EF
:101340005EF04CFA824600231A464FF4C4714046C0
:101350005EF044FA8346354B1968304652F01CFA69
:10136000554552DAA9460CAB2A464FF4CC7140469B
:101370005EF034FA0D9A3B6A9A4246DC0F9901EB13
:10138000D17102EB610203EBD370A2EB600021F09C
:1013900029FBC0EB00203B6A03EBD3735B1090FB8F
:1013A000F3F383F30802D2B22249234852F0D6FD68
:1013B0000146304652F0A8FC0146304652F09EFDF0
:1013C000AB450DD1FF231A461946304652F0A8FC12
:1013D0000146304652F09AFD0CA9304650F048FCC8
:1013E00010AB4A4640F2891140465EF0F7F90023FF
:1013F00001931A2300930CAB4FF0FF3210A9304633
:1014000050F00EFF0135AA45ACDCE369A06800216D
:101410000491039102910196226A00920A4652F0C9
:101420007FF8304652F03AFD01209DE19000002007
:1014300098000020646464000A0AFF0041F203136C
:101440009E426CD1D4F80090D4F80880E1691291E2
:101450002823139300251095226AA2F128035B101C
:101460001193284652F0EAFC0746226AE1692846B1
:1014700052F0E4FC0646BE4B009343F23223BD4AD1
:1014800049463846FFF75AFCBB4B0093BB4BBC4A5E
:1014900049463046FFF752FC962382226E213046A1
:1014A00052F03EFC0146304652F02CFD10A9304669
:1014B00050F0C2FB129B0993049503950295019786
:1014C000119BA2699B1A0093099B2A462946404614
:1014D00052F026F81099119A129B099304950392E1
:1014E00002910196139B0093099B404652F018F815
:1014F000119A139B1A44129B04950392029501972B
:10150000216A891A00912946404652F009F8384666
:1015100052F0C4FC304652F0C1FC012024E141F2FB
:1015200004139E4240F01F81A36962690A920B93E3
:1015300001220AA920685EF00BFE01220AA909987F
:101540005EF0BEFD2668A5680DF1300E143494E8F7
:101550000F008EE80F000121284652F00FFD642194
:10156000284652F017FDF023DC221146284652F09F
:10157000D7FB0146284652F0C9FC2146284650F0C8
:1015800077FB00231A464FF4C77130465EF026F908
:10159000044600231A4640F28B1130465EF01EF9D5
:1015A000814600231A464FF4C47130465EF016F9A6
:1015B00082464C4566DAA0460CAB22464FF4CC710D
:1015C00030465EF00BF90D9A3B6A9A425ADC0F994D
:1015D00001EBD17102EB610203EBD370A2EB60006F
:1015E00021F000FAFF21284652F0D4FC0A231A46C3
:1015F0003221284652F094FB0146284652F07EFCE8
:10160000A2451CD10A231A46FA21284652F088FB2B
:101610000146284652F072FCC821284652F0BAFC16
:10162000FA231A461946284652F07AFB0146284604
:1016300052F06CFC0CA9284650F01AFB0DE0FF217B
:10164000284652F0A7FC64230A221146284652F08D
:1016500067FB0146284652F051FC10AB424640F26F
:10166000891130465EF0BAF80023019312230093EB
:101670000CAB4FF0FF3210A9284650F0D1FD0134D9
:10168000A14598DC01206FE094A9099C20465FF0F9
:1016900033FE074690A920465EF026FEDDF848920C
:1016A000DDF84CB2322312931393BBF1000F30DDFF
:1016B0000025AA460AF00106B9F1000F23DD002437
:1016C00016F0010F0AD0DC231A461946384652F0AC
:1016D00027FB0146384652F019FC09E0AF23A0224F
:1016E0001146384652F01CFB0146384652F00EFCBB
:1016F0001094119510A9384650F0BAFA0136129B91
:101700001C44A145DCDC0AF1010A139B1D44AB45D6
:10171000D0DC94A9099860F049FA012024E0194826
:1017200000F03EFD099860F043FC01201CE01648E3
:1017300000F036FD154B186852F032F9144B18685A
:1017400052F02EF909985DF0D5FF01200CE02346F8
:101750003246099860F096FC06E0012004E0002083
:1017600002E0002000E000200DF51B7DBDE8F08FB9
:1017700064640A00A0E66400DCC896001E140A0037
:101780000A0AFA003C1900084819000898000020CD
:101790009000002030B597B05EF0F4FD01220021EA
:1017A0005EF0D2FE194B0E9303230F93184B109348
:1017B0000025119512951395149515950795069585
:1017C000059504954FF4A07303934FF4C8730293E7
:1017D0001E230193142300930E4B0F4A0EA94FF4BE
:1017E000000060F085FA0446294660F0B9F805E08B
:1017F00009A85EF031F909A85EF024F8214609A88D
:101800005EF004F90028F3D117B030BD0000FEFFF0
:10181000210E00080000E8829018000849007400BA
:1018200065006D002D0031002D00250030003300D3
:10183000640000004900740065006D002D00320056
:101840002D002500300033006400000049007400C2
:1018500065006D002D0033002D00250030003300A1
:10186000640000004C0069007300740062006F00A7
:1018700078003400000000004900740065006D002D
:101880002D0034002D0025003000330064000000DE
:101890004700550049002000440065006D006F00BE
:1018A00020002D0020004C006900730074006200CD
:1018B0006F0078002D004F0077006E006500720009
:1018C00044007200610077000000000077696E64D8
:1018D0006F77303A574D5F4C425554544F4E444FFA
:1018E000574E3A25303858482C25642C25640D0A6B
:1018F0000000000077696E646F77303A574D5F4C97
:10190000425554544F4E55503A25303858482C259E
:10191000642C25640D0A000077696E646F77303A95
:10192000574D5F4D4F5553454D4F56453A2530382D
:1019300058482C25642C25640D0A000077696E5FD9
:10194000636C6F73650D0A0077696E5F646573740D
:10195000726F793A0D0A000008B5FEF749FDFFF7EE
:101960000BF8FFF717FF08BD30B597B001F0C4F9C9
:101970001A4C2368159310A802F096FF4FF4A0604C
:1019800002F030FE00F06EFF00F0D0FF01F002F830
:1019900000F026F900F02AF911484DF0E9F9226823
:1019A000104968464CF0E2FA68464DF0E1F90E4DF8
:1019B0000E4C2B4622460E4968464CF0D7FA684634
:1019C0004DF0D6F92B6822680A4968464CF0CEFAE9
:1019D00068464DF0CDF917B030BD00BF240000209F
:1019E0006C030208341A00080400002000000020E4
:1019F000481A0008601A000810B500F0D9F84DF038
:101A0000B5FA4EF039F94EF07DF84DF095FE074CE1
:101A1000204601F0DBFB1EF0E7FB224604490120D3
:101A20001EF044FC00F0FAFF10BD00BF781A000859
:101A3000801A000853797374656D436C6F636B3A59
:101A40002564487A0D0A000026613A253038584846
:101A50003B2026623A25303858482E0D0A000000F7
:101A600020613A25303858483B2020623A253038EA
:101A700058482E0D0A00000053444D4D43300000DD
:101A8000423A000008B564204DF010FB03F078F8EE
:101A9000002008BD82B0019B01330193FEE700BF27
:101AA000704700BF08B5FFF75FFF4DF0CFFD08BDE1
:101AB00000B583B0002100910B4642F204020348B6
:101AC0004DF012FB03B05DF804FB00BF851A00085F
:101AD00008B564204DF0EAFAFFF73EFFFCE700BFCF
:101AE00070B50A4B1E68B6F56A7F08D104E053F85A
:101AF000085FB54204D100E0054CA04770BD054B1E
:101B0000DC68002CF3D14BF07DFD70BD0800002097
:101B1000C12B0208601B000870B50A4B1E68B6F5A1
:101B20006A7F08D104E053F8085FB54204D100E0B1
:101B3000054CA04770BD054BDC68002CF3D14BF081
:101B40008DFD70BD08000020352C0208501B0008D8
:101B5000A8030000352C020800000000000000006F
:101B6000A8030000C12B02080000000000000000D4
:101B700008B50146024B18684DF0F6FB08BD00BFE2
:101B80009C00002008B50146024B18684DF086FC09
:101B900008BD00BF9C00002008B54DF0BBFC08BD8F
:101BA00008B54DF0BFFC08BD08B54DF0B3FC08BD4D
:101BB00008B520224FF4E04106484DF0A1FC402238
:101BC0004FF480114FF0D0404DF0B4FC024B186040
:101BD00008BD00BFA00000209C000020002070472E
:101BE00082B0012002B0704700207047704700BFEC
:101BF0000120704782B00BE000230193019B012B71
:101C000005DC019B01330193019B012BF9DD0138B8
:101C10000028F1DC02B070474B1C934220DCF0B48A
:101C200000EB810700E0194657F8046F0B460029C6
:101C30000EDB57F8044CA6420ADA3D4645F8044943
:101C4000013BB3F1FF3F03D055F8044CA642F5DB4E
:101C5000013340F823604B1C02318A42E3DAF0BCC6
:101C6000704700BFF8B50446274B80225A612749C8
:101C70004FF4006048614FF4806048615A61082762
:101C800014F0800F4FF40062204B14BF1A615A61A8
:101C90006400E4B20120FFF7ADFF1B4D80266E61AA
:101CA0000120FFF7A7FF2E610120FFF7A3FF6E6160
:101CB000013FE5D10620FFF79DFF2C46666101201C
:101CC000FFF798FF26610120FFF794FF666110255A
:101CD00000246400A4B20C4E802777610120FFF736
:101CE00089FF3761094B9B6813F0400F18BF44F020
:101CF00001046B1E13F0FF05EBD14FF48062034B20
:101D00001A612009F8BD00BF00200140001C0140FD
:101D1000044B9B6813F4007F0CBF01200020024B92
:101D200018607047001C0140A07000202DE9F041B0
:101D30001A4B1F68012F2DD18046194C04F1300633
:101D400025469020FFF78EFF45F8040BAE42F8D1F0
:101D5000134D0B2200212846FFF75EFF2A8BEB690B
:101D60001344C3F34E05D020FFF77CFF44F8040B67
:101D7000B442F8D10A4C0B2200212046FFF74CFF59
:101D8000228BE3691344C3F34E03C8F80050C8F82C
:101D9000043000E000273846BDE8F081A070002044
:101DA000A470002038B505460A484CF0F9FF0A49EE
:101DB0000A4860F041FE58B104460346012214214E
:101DC000284660F061FE204660F06CFE012038BDC0
:101DD000002038BD041F0008141F0008181F000849
:101DE00038B504461249134860F026FE80B1054616
:101DF000034601221421204660F038FE22462021AD
:101E000000204DF091F8284660F04CFE012038BDCE
:101E10001022A280E280202323816281A381E381BA
:101E20002282638204484CF0BBFF002038BD00BF13
:101E3000281F0008181F00082C1F000810B50446B2
:101E4000FFF774FF28B122464FF4A071F02002F092
:101E5000E3FE012010BD00BFF0B583B000221F4B90
:101E60001A6001278DF8067010268DF8076002AC05
:101E70004FF4806324F8043D194D2146284602F0B2
:101E8000C5FC8DF807608023ADF804302146154865
:101E900002F0BCFC8DF807604FF40063ADF804302D
:101EA0002146284602F0B2FC48268DF80760402300
:101EB000ADF804302146284602F0A8FC8DF80760F2
:101EC0004FF40073ADF804302146284602F09EFC22
:101ED00005484CF04DFF384603B0F0BDA07000201F
:101EE000001C014000200140441F0008591E00084A
:101EF000111D00082D1D00083D1E0008E11D0008F1
:101F0000A51D000874735F736176655F6366670A79
:101F10000000000077622B00423A74735F636667CB
:101F20002E62696E000000007262000074735F6CC4
:101F30006F61645F636F6E666967204572726F726E
:101F40000D0A0000414453373834335F496E6974D9
:101F50002C0D0A0070B582B010238DF807300323D2
:101F60008DF8063002AE402326F8043D124C31466F
:101F7000204602F04BFC4FF40065ADF804503146AA
:101F8000204602F043FC2946204602F089FC32201C
:101F90004DF08CF82946204602F084FC32204DF0AA
:101FA00085F82946204602F07BFC32204DF07EF871
:101FB00000F06CFB02B070BD0020014008B520B1FC
:101FC0004021044802F06EFC08BD4021014802F0A7
:101FD00067FC08BD0020014008B5642004F0D6FC71
:101FE000002051F0A9FB02F0CDFF012051F0A4FB2D
:101FF000FFF76EFD002008BD08B5042100204DF05C
:10200000CBF802F037FF322004F0C0FCF9E700BF44
:102010000120704730B583B015484CF0A9FEFFF79A
:1020200099FF4FF4A071F02054F04AFF04468369F1
:102030001D6A43695B6A0022114610469847019069
:102040004FF4A0730093F023002211462046A847C6
:102050000120FFF7B3FFA268616820780023009396
:1020600051F0B4FE52F04CFE204603B030BD00BF2C
:102070006C22000800B587B002F094FE30B101A8D0
:1020800002F0DAFE10B101A802F0B8FD07B05DF869
:1020900004FB00BF70B58CB005460F2932D0144642
:1020A00002D8012905D05DE0142917D091295ED00E
:1020B00058E0FFF7DFFF0024009423464FF48052DE
:1020C00021462C484DF010F8009423464FF400525E
:1020D000214629484DF008F8204649E006AD0FCBCF
:1020E00085E80F00962350223221204651F018FE39
:1020F0000146204651F00AFF294620464FF0B8FD20
:10210000012035E006A95FF0F7F806460A2302939E
:1021100014230393962304931C23059364233C22E6
:10212000282151F0FDFD0146304651F0EFFEFA2323
:102130001A461946304651F0F3FD0146304651F03B
:10214000DDFE002401948A23009302AB4FF0FF329E
:102150000A49304650F064F806A928465FF026FD8B
:10216000204605E02246284660F09CF800E000206A
:102170000CB070BDF91F0008D91F00083C220008F0
:1021800008B5FFF7F5FC08BD08B5FFF7FBFC08BD77
:1021900008B5FFF7EDFC08BD08B5FFF7F3FC08BD77
:1021A0000FB404B0704700BF08B5024851F0FEFC00
:1021B00008BD00BF9469000830B597B01C4B0E9362
:1021C00003230F931B4B1093002411941294139428
:1021D00014941594204652F077FD0546012052F0E4
:1021E00073FD07940694059404940390029501945A
:1021F00000944FF04073104A0EA94FF4801060F025
:102200005DF8054621465FF0ABFB012051F094FAE2
:1022100005E009A85DF020FC09A85DF013FB294644
:1022200009A85DF0F3FB0028F3D117B030BD00BF63
:102230000000FEFF952000085C22000865006D008C
:102240005800470055004900200044006500730015
:102250006B0074006F007000000000004400450037
:1022600053004B0054004F00500000004755495F99
:10227000446973706C6179496E69740D0A000000DD
:1022800082B0322264230193019B002B05DD019B68
:10229000013B0193019B002BF9DC013AF2D102B022
:1022A000704700BF38B504460D4600F04FFE0028C9
:1022B00046D105F00703013B062B3FD8DFE803F0CA
:1022C00004080C0F13161A0025F00705234631E009
:1022D00025F00705224629E025F0070522E025F034
:1022E000070523461AE025F0070513E025F007054A
:1022F00023460BE025F0070504E0083D2288114B3A
:102300001A800234A31C21880E4A11809C1C1A8852
:102310000C4B1A80A31C21880A4A11809C1C1A8825
:10232000084B1A80A21C2188064B1980931C118827
:10233000044A11809C1C1A88024B1A80002DDCDC98
:1023400038BD00BFFEFFFF6F70B44FF0D8452A24A0
:102350002C80060A084C26802080100A20802280CB
:102360002B222A800A0A228021801A0A22802380B6
:102370002C232B8070BC7047FEFFFF6F70B483B0BE
:102380004FF0D8452A242C80060A154C2680208040
:10239000100A208022802B222A800A0A2280218093
:1023A0001A0A228023802E232B8023889BB2ADF82B
:1023B00006300023ADF80630BDF806309BB2012B85
:1023C0000AD8BDF8063001339BB2ADF80630BDF82F
:1023D00006309BB2012BF4D903B070BC704700BF2C
:1023E000FEFFFF6F014B1880704700BFFEFFFF6FBD
:1023F0008908C008C00240EA411141EAD202014BFB
:102400001A807047FEFFFF6F064A13889BB2108840
:1024100003F47842C0F3C4201043DB0003F4FC63F0
:1024200018437047FEFFFF6F30B4064C23889BB201
:1024300024881D0A05700B70C4F30724147030BC87
:10244000704700BFFEFFFF6FF8B5BDF81870561E4D
:102450000644B6B25D1E0D44ADB24FF0D84E2A24EC
:10246000AEF800404FEA102C274CA4F800C02080A2
:10247000300A208026802B20AEF80000080A208039
:102480002180290A218025802C21AEF8001003FB31
:1024900002F42146384600F035FD002832D104F020
:1024A0000703013B062B2BD8DFE803F004070A0DD6
:1024B0001013160024F0070420E024F007041BE0AA
:1024C00024F0070416E024F0070411E024F00704C8
:1024D0000CE024F0070407E024F0070402E0083CC5
:1024E000094B1F80084B1F80074B1F80064B1F8026
:1024F000054B1F80044B1F80034B1F80024B1F8026
:10250000002CECDCF8BD00BFFEFFFF6F2DE9F04FA3
:1025100087B0029103920193002B69D000F1FF393B
:1025200091441FFA89F94A1E03EB02081FFA88F842
:102530004FEA192B4FEA182A002300934BE0421868
:1025400092B24FF0D8442A232380160A2A4B1E80C9
:102550001A80A3F800B0A3F800902B222280A3F8E1
:1025600000E01F80A3F800A0A3F800802E222280A4
:102570001B889BB2ADF816300023ADF81630BDF8BD
:1025800016309BB2012B0AD8BDF8163001339BB22E
:10259000ADF81630BDF816309BB2012BF4D9164AAF
:1025A00013889BB2128803F47844C2F3C4222243F6
:1025B000DB0003F4FC63134325F8023B0131614562
:1025C000BDD1109B119A13441093009B01330093CB
:1025D000019A93420CD0039B9C46002BF1D0029BA6
:1025E000009A9F18BFB24FEA172E109D0021A6E750
:1025F00007B0BDE8F08F00BFFEFFFF6F2DE9F84385
:102600000C46089D099F02F1FF3E86441FFA8EFE8C
:10261000CE18B6B206F1FF3C1FFA8CFC4FF0D8483A
:102620002A21A8F800104FEA10291749A1F80090B4
:1026300008804FEA1E200880A1F800E02B20A8F8AF
:102640000000200A08800C804FEA1C200880A1F8B6
:1026500000C02C21A8F80010791091420DD09046AE
:10266000B4420FD241462846FFF71CFE3D440134D8
:10267000A4B2A642F6D8BDE8F88301FB03F12846D0
:10268000FFF710FEBDE8F883FEFFFF6F2DE9F84F5E
:10269000FFF7F6FD4FF0D845CF232B80674C00267F
:1026A0002680812727804FF030032380FFF7E8FD45
:1026B000ED232B80642323804FF00308A4F80080CF
:1026C000122323802780FFF7DBFDE8232B8085235F
:1026D00023801027278078232380FFF7D1FDCB2389
:1026E0002B804FF03909A4F800902C2323802680FA
:1026F0003423238002232380FFF7C2FDF7232B809E
:1027000020232380FFF7BCFDEA232B802680268030
:10271000FFF7B6FDB1232B8026804FF01B0AA4F8EB
:1027200000A0FFF7ADFDB6232B800A2323804FF0D6
:10273000A20BA4F800B0FFF7A3FDC0232B80252334
:102740002380FFF79DFDC1232B802780C5232B808D
:10275000452323802380C7232B80A4F800B0F223D5
:102760002B8026804FF0260BA5F800B04FF0010318
:102770002380FFF785FDE0232B800F232380A4F81F
:1027800000B0242222800B2222800E2222800922E5
:10279000228054212180A8212180462121800C21E2
:1027A00021801721218022802380072222802680F9
:1027B000E1212980268019212180A4F800A004218C
:1027C0002180278022802A27278047222280A4F880
:1027D0000090A4F800800622228022804FF0300270
:1027E0002280382222802380FFF74AFD36232B8067
:1027F000C8232380FFF744FD2F8026802680268073
:10280000EF232380FFF73CFD2B232B80268026809F
:102810004FF0010323803F232380FFF731FD3A234C
:102820002B805523238011232B80FFF729FD29239B
:102830002B80204600F014FBBDE8F88FFEFFFF6FF1
:102840000FB400B5B5B036AA52F8041B019202A825
:102850004BF086F902A84BF09BF835B05DF804EB1D
:1028600004B07047F0B583B001214FF4807002F0DE
:1028700075F801214FF4F07002F07EF84CF203730A
:10288000ADF8043018238DF8073003278DF8067053
:10289000224D01A9284601F0B9FF4FF68073ADF82B
:1028A00004301F4E01A9304601F0B0FF4FF23F0344
:1028B000ADF8043001A91B4801F0A8FF3F23ADF893
:1028C0000430194C01A9204601F0A0FF4FF46053D9
:1028D000ADF8043001A9284601F098FF3023ADF887
:1028E000043001A9284601F091FF4FF48063ADF850
:1028F000043001A9204601F089FF4FF48053ADF860
:10290000043001A9204601F081FFADF8047001A94F
:10291000304601F07BFF03B0F0BD00BF0014014062
:1029200000180140001C01400020014030B59FB05C
:1029300000230893099301240A940B930C930D939D
:102940000E930194029303940493059306930793C3
:1029500004250F9510931193102212921393149340
:102960001593169317934FF48052189219934FF4BE
:1029700080421A921B930DEB05031C9308AB1D9329
:102980000FA801F0CBFE2146284601F02BFF1FB017
:1029900030BD00BF30B59FB00423ADF80030182320
:1029A0008DF8033003238DF8023069461A4801F090
:1029B0002DFF00230893099301240A940B930C9391
:1029C0000D934FF080520E920194029302210391D5
:1029D000049305930693079206250F951093119380
:1029E00010221292139314931593169317934FF486
:1029F0008052189219934FF480421A921B9301ABA4
:102A00001C9308AB1D930FA801F088FE21462846B1
:102A100001F0E8FE1FB030BD0018014008B50020ED
:102A20004CF0D8FA024B186000F060F808BD00BF07
:102A3000D470002010B504464FF48052184B1A6031
:102A400009E0174A1368591E116023B91548FFF7AA
:102A5000F7FE002010BD0221134802F08BF8002879
:102A6000EFD02146104802F07FF84FF480520C4B13
:102A70001A6009E00A4A1368591E116023B909480F
:102A8000FFF7DEFE002010BD0121074802F072F8BA
:102A90000028EFD0044802F069F8C0B210BD00BFB2
:102AA00010000020D02B000800300140F8B50E4D7A
:102AB0001021284601F0F6FE9F20FFF7BBFFFF2004
:102AC000FFF7B8FF0746FF20FFF7B4FF0446FF20DB
:102AD000FFF7B0FF06461021284601F0E1FE200274
:102AE00040EA07403043F8BD0008014030B587B0E8
:102AF00001214FF4805001F03FFF0121042001F03B
:102B00003BFF1025ADF8005003238DF802308DF8FF
:102B100003502D4C6946204601F078FE0121042027
:102B200001F02AFF2023ADF8003018238DF8033080
:102B30006946204601F06AFE0121042001F01CFFD5
:102B40004023ADF800306946204601F05FFE0121C8
:102B5000042001F011FF8023ADF8003069462046C3
:102B600001F054FE2946204601F09AFE0023ADF8FC
:102B700004304FF48272ADF80620ADF8083002221E
:102B8000ADF80A200125ADF80C504FF40072ADF8F5
:102B90000E200822ADF81020ADF812300723ADF852
:102BA000143004F5205401A9204601F0AFFF294656
:102BB000204601F0CBFFFFF779FF044B984214BF8A
:102BC0000020012007B030BD000801401740EF0091
:102BD0003C3C2D464C4153482D4552524F522D3EC0
:102BE0003E205350492054696D656F75742065729D
:102BF000726F72210A00000082B03B4B1A6842F0EB
:102C000001021A605968394A0A405A601A6822F06B
:102C1000847222F480321A601A6822F480221A60C8
:102C20005A6822F4FE025A604FF41F029A60002292
:102C3000009201921A6842F480321A602A4B1B6893
:102C400003F400330193009B01330093019B1BB9F4
:102C5000009BB3F5A06FF1D1234B1B6813F4003F29
:102C600014BF012300230193019B012B36D1204B7C
:102C70001A6842F010021A601A6822F003021A6001
:102C80001A6842F002021A60A3F580535A685A602B
:102C90005A685A605A6842F480625A605A6822F44C
:102CA0007C125A605A6842F4E8125A601A6842F07C
:102CB00080721A600C4B1B6813F0007FFAD00A4B2D
:102CC0005A6822F003025A605A6842F002025A60BF
:102CD000054B5B6803F00C03082BF9D14FF0006241
:102CE000044B9A6002B07047001002400000FFF8E9
:102CF0000020024000ED00E01D4B5B6803F00C0378
:102D0000042B06D0082B08D013BB1A4A1A4B1A60A2
:102D100021E0184A184B1A601DE0154A53685268A2
:102D2000C3F38343023312F4803F05D1134A02FBFD
:102D300003F3114A13600EE00D4A526812F4003F8B
:102D400014BF0E4A0B4A02FB03F30B4A136002E066
:102D5000084A094B1A60064B5B68C3F30313084A21
:102D6000D35CDAB204490B68D3400B60704700BFF4
:102D70000010024000127A002400002000093D00EB
:102D80001400002070B51E46234BD9609860141EB5
:102D90003BDD0D46B4F5803F03DA21E0B4F5803F1A
:102DA0001EDB1D4B1A6822F001021A604FF6FF72FB
:102DB0005A60A4F57F44FF3C0121184A11601A684B
:102DC0000A431A604FF47A71154B186803F0BEFD80
:102DD000CEB105F5FF3505F5FF750F4BDD6012E04F
:102DE0000D4B1A6822F001021A605C6001210B4A47
:102DF00011601A680A431A604FF47A71084B186818
:102E000003F0A4FD01E0002CC8DC034A136823F0A2
:102E10000103136070BD00BF6C000240DC70002035
:102E2000D870002008B54BF023FC4FF4001001F0DF
:102E300059FC70B14FF4001001F048FC4FF4001041
:102E400001F060FC0022044B1A60044B186803F088
:102E500085FD4BF025FC08BDDC700020D8700020FB
:102E600070B58CB00546204B18600121002003F09E
:102E700067FD1E4B18600121084601F06FFD00241C
:102E800002940195102503950494059406944FF43B
:102E9000807307934FF48063089309944FF4405371
:102EA0000A934FF480430B93114E01A9304601F071
:102EB000D5FB01220221304601F0FEFB4FF4001049
:102EC00001F004FC4FF4001001F01CFC8DF80050E0
:102ED0008DF8014001238DF802308DF803306846EB
:102EE00001F08AFB0CB070BDE0700020D8700020AB
:102EF0006C000240024B1B68012BFBD0704700BFE7
:102F0000DC700020B1F5C87F17DB38B50C460546EC
:102F1000FFF7F0FF0A490D600A4B1A6822F08002A1
:102F20001A601A6822F040021A60002322460648FE
:102F30000068FFF727FF012038BD0020704700BF61
:102F4000E47000206C000240E0700020B1F5C87F02
:102F500016DB38B50C460546FFF7CCFF094B1A685F
:102F600022F040021A601A6842F080021A600123BF
:102F70002246294604480068FFF704FF012038BDB7
:102F8000002070476C000240E07000200120704774
:102F9000012070470120704708B54FF0FF31024B08
:102FA00018684CF023F808BDF470002008B5024BF7
:102FB00018684CF029F808BDF4700020012802D0F0
:102FC000022818D022E019B310B596B00C46684616
:102FD00000F056FD68B9022323804FF40072A2600E
:102FE000129B5B0A139943EAC1536360E2600120BC
:102FF00010E000200EE0084B1868012802D10023E1
:103000000B60704703230B6001207047002070475E
:103010000020704716B010BDF070002008B54BF0CE
:1030200027FB01F081F94BF03BFB08BD08B54BF0E5
:103030001FFB01F0CFF9034B18684CF01FF84BF061
:103040002FFB08BDE870002008B5002201211046C2
:103050004BF0F6FF054B18604FF40070FEF7A4FD2F
:10306000034B186000F0ACFE08BD00BFE870002004
:10307000EC70002000B597B000204BF0ABFF094B7F
:103080001860FFF7E1FF30B9684600F0F9FC012055
:10309000054B186002E00020034B186017B05DF884
:1030A00004FB00BFF4700020F070002000B583B076
:1030B000012A08DD01924FF4007300934A020023B5
:1030C00000F052FF06E04FF4007300934A02002321
:1030D00000F0DEFE68B94FF47A71074B18684BF0C8
:1030E000BFFF01F02BF820B901F012F90028FBD145
:1030F000FFE703B05DF804FBE87000200B4B1B6892
:1031000093B170B516460C460546FFF745FF3246AB
:1031100029462046FFF7CAFF0446FFF747FFB4FAE7
:1031200084F35B09184670BD18467047F0700020A4
:10313000F0B583B0002A27DD064657180C46144D1B
:103140004FF40072314628681FF050FC28684FF495
:10315000007300936202002300F074FF0546A0B9DB
:103160004FF47A710B4B18684BF07AFF01F03CF882
:10317000054650B901F0CCF80028FBD106F50076E1
:103180000134BC42DBD100E02925284603B0F0BD64
:10319000EC700020E87000200B4B1B6893B170B5F9
:1031A00016460C460546FFF7F7FE324629462046EE
:1031B000FFF7BEFF0446FFF7F9FEB4FA84F35B099C
:1031C000184670BD18467047F070002008B5002200
:1031D00002494CF041FB012008BD00BFE03100086E
:1031E000992F0008AD2F0008753000088D2F0008BA
:1031F000912F0008952F0008FD3000089931000834
:10320000BD2F000808B5104B5B6B13F0450F04D1C0
:103210000D4B5B6B13F0450FFAD013F0040F04D085
:10322000042001F05DFC032008BD13F0010F04D061
:10323000012001F055FC012008BD40F2FF5001F0D3
:103240004FFC002008BD00BF0080014010B50446BF
:10325000464B5B6B13F0450F04D1444B5B6B13F093
:10326000450FFAD013F0040F04D0042001F038FC0D
:10327000032010BD13F0010F04D0012001F030FC39
:10328000012010BD01F0F4FBA04246D140F2FF50F6
:1032900001F026FC002001F0F1FB354B0340002B30
:1032A0003DD000283DDB10F0804F3CD110F0005F96
:1032B0003BD110F0805F3AD110F0006F39D110F09F
:1032C000806F38D110F0807F37D110F4000F36D1E5
:1032D00010F4800F35D110F4001F34D110F4801F8A
:1032E00033D110F4002F32D110F4802F31D110F4EB
:1032F000003F30D110F4803F2FD110F4004F2ED179
:1033000010F4804F2DD110F4005F2CD100F0080094
:10331000002814BF1A20002010BD102010BD00206E
:1033200010BD1C2010BD092010BD0A2010BD0B20AF
:1033300010BD0C2010BD0D2010BD0E2010BD0F20A3
:1033400010BD102010BD112010BD122010BD132083
:1033500010BD142010BD152010BD162010BD172063
:1033600010BD182010BD192010BD00BF0080014005
:1033700008E0FFFD70B582B00446002001F07EFB3E
:1033800010F0007F40F0E98000230093019379481A
:10339000082202601025456040228260C3604FF41D
:1033A0008063036101F04EFB2846FFF74FFF0028C2
:1033B00040F0DB806F48704B1B68AB4003603725E3
:1033C0004560402383600023C3604FF48063036142
:1033D00001F038FB2846FFF739FF002840F0C6808F
:1033E00066484AF6FF730360082343603023836016
:1033F0000223C360002505610123436101F04AFBFC
:103400005C4805603326466040238360C5604FF406
:103410008063036101F016FB3046FFF717FF0028B9
:1034200040F0A5806D4608E04FF4001001F04EFB1F
:1034300018B101F045FB45F8040B514B5A6B40F2B3
:103440002A631A42F0D0082001F040FB20B1082086
:1034500001F046FB04208AE0022001F037FB20B196
:10346000022001F03DFB022081E0202001F02EFB34
:1034700020B1202001F034FB062078E04FF40070EA
:1034800001F024FB28B14FF4007001F029FB072064
:103490006DE040F2FF5001F023FB009B1A0E42EA60
:1034A00003611A0202F47F020A431B0A03F47F43FA
:1034B0001343012C29D113F4802F50D02D482E4BCB
:1034C0001B681B040360372444604023836000238F
:1034D000C3604FF48063036101F0B4FA2046FFF744
:1034E000B5FE00283DD12348022303600624446032
:1034F000402383600023C3604FF48063036101F0C5
:10350000A1FA2046FFF7A2FE31E013F4803F29D054
:103510001848194B1B681B04036037244460402380
:1035200083600023C3604FF48063036101F08AFA73
:103530002046FFF78BFEB8B90E480023036006242F
:10354000446040228260C3604FF48063036101F0F5
:1035500079FA2046FFF77AFE09E00E2007E02520E1
:1035600005E004E0252002E001E000E0FFE702B012
:1035700070BD00BF3071002024710020B8710020A0
:103580000080014000B583B00121B02001F0F4F9C2
:103590004FF4F853ADF8043003238DF806301823A8
:1035A0008DF8073001A9114801F030F90423ADF876
:1035B00004300DEB03010E4801F028F94FF40063CD
:1035C000ADF8043048238DF8073001A9094801F00F
:1035D0001DF901214FF4806001F0C0F901210220A2
:1035E00001F0BCF903B05DF804FB00BF001001401E
:1035F00000140140001C014070B58CB006460D4619
:10360000164801F063F8164C0021204601F046F8F8
:10361000144B0193029610230393AD0804950023E5
:103620000593802206924FF4007207924FF40062D5
:10363000089209934FF400520A920B9301A9204675
:1036400001F00CF801220221204601F035F8012199
:10365000204601F023F80CB070BD00BF00F0001050
:10366000440402408080014070B58CB006460D468F
:10367000154801F02BF8154C0021204601F00EF8FA
:10368000134B0193029600230393AD080495059311
:10369000802206924FF4007207924FF40062089263
:1036A00009934FF400520A920B9301A9204600F0AF
:1036B000D5FF01220221204600F0FEFF0121204615
:1036C00000F0ECFF0CB070BD00F0001044040240AC
:1036D0008080014070B582B000248DF80740864894
:1036E000B2230375046044608460C460046101F027
:1036F00063F9032001F07EF9012001F075F97F489C
:10370000046044608460C4604FF48063036101F02E
:1037100099F94FF4803401E0013C0BD0802001F096
:10372000D5F90028F8D03CB140F2FF5001F0D8F9AB
:10373000002302E0032300E003238DF807309DF807
:10374000073003F0FF041BB19DF80700C0B2D0E0C2
:103750006A484FF4D57303600823436040238360B5
:103760000023C3604FF48063036101F06BF9644B85
:103770005A6B12F0450F0BD14FF48033013B604A76
:10378000526B12F0450F02D1002BF7D103E013B1B9
:1037900012F0040F04D0042001F0A2F9032405E084
:1037A00012F0400F02D0402001F09AF98DF8074046
:1037B0009DF8073013F0FF0F05D10122514B1A601D
:1037C0004FF0804511E04D480025056037244460E6
:1037D00040238360C5604FF48063036101F032F9D8
:1037E0002046FFF733FD8DF80700444800230360AF
:1037F0003724446040228260C3604FF480630361D9
:1038000001F020F92046FFF721FD8DF807009DF813
:10381000073013F0FF0F69D10024384800230360FC
:103820003726466040228260C3604FF480630361A4
:1038300001F008F93046FFF709FD8DF807009DF803
:10384000073003F0FF061BB19DF80700C0B250E03F
:103850002A4845F0004343F4801303602923436062
:10386000402383600023C3604FF48063036101F051
:10387000E9F8234B5B6B13F0450F04D1204B5B6BD6
:1038800013F0450FFAD013F0040F04D0042001F018
:1038900027F9032603E040F2FF5001F021F98DF8EB
:1038A00007609DF8073013F0FF0F03D09DF8070065
:1038B000C0B21EE0002001F0E1F80134002804DB72
:1038C0004FF6FF739C42A8D103E04FF6FE739C4273
:1038D00006D91B238DF807309DF80700C0B208E019
:1038E00010F0804F02D00222064B1A609DF80700AC
:1038F000C0B202B070BD00BFA071002030710020C6
:10390000008001400C71002038B501F07FF80028DC
:1039100000F09A80544B1B68042B00F097805348AA
:103920000023036002224260C0228260C3604FF421
:103930008063036101F086F8FFF764FC002840F023
:10394000878001F09BF84A4C2060042001F096F833
:103950006060082001F092F8A0600C2001F08EF861
:10396000E060414B1B68022B01D9062B41D13F4837
:10397000002303600322426040228260C3604FF450
:103980008063036101F05EF83A4B5B6B13F0450F07
:1039900004D1384B5B6B13F0450FFAD013F0040FD2
:1039A00004D0042001F09CF8032038BD13F0010F6F
:1039B00004D0012001F094F8012038BD01F058F83E
:1039C000032849D140F2FF5001F08AF8002001F0AD
:1039D00055F810F4604F01D1030C0BE010F4005FB8
:1039E0003CD110F4804F3BD110F4004F3AD1012369
:1039F00000E001231C4A1268042A2AD01E4A1360E0
:103A00001A481B04036009234360C023836000231A
:103A1000C3604FF48063036101F014F8FFF7F2FB19
:103A20000446C0B901F02AF8144D2860042001F0C2
:103A300025F86860082001F021F8A8600C2001F04A
:103A40001DF8E860204638BD252038BD002038BD6F
:103A500038BD002038BD38BD102038BD132038BD1A
:103A6000102038BD0F2038BD0C71002030710020AF
:103A7000107100200080014024710020FC700020A3
:103A8000F0B403469F4A146880F856409E4A126874
:103A9000A0F854209D4D2A68100EC1B28E091E70E8
:103AA000C0F38300587001F003019970C2F307411D
:103AB000D970C2F307211971D2B25A7169680A0E1E
:103AC0001201DA80C1F30740DA8892B242EA10129A
:103AD000DA8000F00F001872080AC2B2D5095D72D0
:103AE000C0F380159D72C0F34015DD72C0F3001560
:103AF0001D7300255D73012C40D8800200F44060E6
:103B000018611A69890001F47F71114319617F4AB4
:103B10009268100EC1B21C6944EA91141C61C0F392
:103B2000C200187501F007015975110CC1F342105C
:103B30009875C1F38200D875490001F00601197625
:103B4000C2F30722197E41EAD21119761D69187E47
:103B50001C7AE4B2012101FA04F41C65023001FA76
:103B600000F0C717A0FB040104FB07116C1CA0FBAD
:103B7000046704FB0177C3E912671CE0022C1AD129
:103B8000090401F47C111961604A92681969100EE8
:103B900041EA002119611969C2F307400143196123
:103BA000C2F3072219690131C90499640021D9645B
:103BB0004FF400711965C2F380115976520002F07A
:103BC0007E029A765148027A997E41EAD21199761C
:103BD00002F07F02DA76C1680A0ED0091877C2F3C4
:103BE00041105877C2F382009877920002F00C02DD
:103BF000DA77080CC2B2DC7F44EA9214DC77C0F3B7
:103C0000401083F82000002083F8210002F0010218
:103C100083F822200A0AD4B2E50983F82350C2F3BC
:103C2000801583F82450C2F3401583F82550C2F361
:103C3000001583F82650C2F3810283F8272004F090
:103C4000030483F82840C1F3460183F829100124B6
:103C500083F82A402E490A68150E83F82C50C2F3C7
:103C600007452D02DD85DD8DAEB2C2F30725354354
:103C7000DD8512061A634A681D6B160E45EA064575
:103C80001D631E6B150A05F47F4535431D631D6BCF
:103C9000C2F3072635431D63D2B283F834208A6805
:103CA000150E83F83550150C2D069D639E6B15027D
:103CB00005F47F0535439D639D6B120202F47F423C
:103CC0002A439A63CA68996B41EA12619963110C9D
:103CD00093F83C60C1F30315354383F83C50090267
:103CE00001F47061D987D98F8DB2C2F307212943BE
:103CF000D987C2F3460283F8402083F84140F0BCE4
:103D0000704700BF0C71002024710020FC7000205F
:103D1000107100201D4B1B68032B2ED0022B2ED8B8
:103D2000B0F5805F2DD010B5B0F5006F13D1012034
:103D3000FFF720FB044630BB154801230375002321
:103D40000360436083604FF40062C260036100F06F
:103D500033FE204610BD0020FFF70CFB044698B947
:103D60000B48012303750023036043608360C36035
:103D7000036100F021FE204610BD2720704700207F
:103D800070472720704710BD10BD00BF0C71002088
:103D9000A071002010B5094B186007245C60402218
:103DA0009A600022DA604FF480621A61184600F0CF
:103DB00049FE2046FFF74AFA10BD00BF30710020CF
:103DC00030B583B000238DF80730FFF7DBFB00F040
:103DD000E1FDFFF77FFC8DF807009DF8073013F039
:103DE000FF0F03D09DF80700C0B24BE0FFF78CFD3A
:103DF0008DF807009DF8073013F0FF0F03D09DF8F2
:103E00000700C0B23EE0204801250575002404608B
:103E100044608460C460046100F0CEFD31238DF8FD
:103E200000308DF801408DF802508DF8035068463F
:103E300000F0E2FB3B238DF800308DF8014068462E
:103E400000F0DAFB1148FFF71BFE8DF807009DF824
:103E5000073013F0FF0F07D10C4BB3F854000004E8
:103E6000FFF798FF8DF807009DF8073013F0FF0F5C
:103E700005D14FF40060FFF74DFF8DF807009DF866
:103E80000700C0B203B030BDA0710020487100200F
:103E90002DE9F04180461546BDF8184000222B4917
:103EA0000A702B490A602B490A602B49CA622B4AC7
:103EB0001268022A04D16D0A45EAC3554FF4007412
:103EC000274627480460102646604023836000236D
:103ED000C3604FF48063036100F0B4FD3046FFF728
:103EE000B5F970BB1F484AF6FF7303604460902326
:103EF00083600223C360002606610123436100F052
:103F0000C9FD174805601124446040238360C660E2
:103F10004FF48063036100F095FD2046FFF796F9AA
:103F2000044680B9012140F22A3000F077FD0120DB
:103F300000F082FD39464046FFF796FB2046BDE87B
:103F4000F081BDE8F081BDE8F08100BFF87000208D
:103F5000287100202C710020008001400C7100208D
:103F600030710020B87100202DE9F04180461646DE
:103F7000BDF8187000222C490A702C490A600120F3
:103F80002B4908602B49CA622B4A1268022A04D1C5
:103F9000760A46EAC3564FF4007728480760102493
:103FA0004460402383600023C3604FF48063036157
:103FB00000F048FD2046FFF749F988BB20484AF643
:103FC000FF730360079B03FB07F747609023836041
:103FD0000223C360002505610123436100F05AFDFF
:103FE000164806601224446040238360C5604FF485
:103FF0008063036100F026FD2046FFF727F90446A1
:1040000080B9012140F22A3000F008FD012000F0C3
:1040100013FD39464046FFF727FB2046BDE8F081F7
:10402000BDE8F081BDE8F081F87000202871002023
:104030002C710020008001400C71002030710020A4
:10404000B8710020F8B506461546BDF818100022D4
:104050002948027029480260294802602948C26242
:10406000294A1268022A04D16D0A45EAC3554FF461
:1040700000710F462548016010244460402383608E
:104080000023C3604FF48063036100F0DBFC204633
:10409000FFF7DCF868BB1D48056018244460402326
:1040A00083600023C3604FF48063036100F0CAFCA7
:1040B0002046FFF7CBF80446E0B915484AF6FF73EF
:1040C00003604760902383600023C3600361012580
:1040D000456100F0DFFC294640F22A3000F09EFCEA
:1040E00039463046FFF788FA284600F0A5FC2046FE
:1040F000F8BDF8BDF8BD00BFF870002028710020A1
:104100002C710020008001400C71002030710020D3
:10411000B871002010B50848002303600C244460E7
:1041200040228260C3604FF48063036100F08AFC28
:104130002046FFF78BF810BD3071002038B5254BB5
:104140001B68B3B9244B1B689BB9244B1B7813F035
:10415000FF0F0ED14AF6FF731E4A12684AB91E4A73
:10416000126832B91D4A127812F0FF0F01D1013BDB
:10417000F2D10022174B1A60194B5B6B13F4005FEE
:104180000AD04AF6FF74013C154B5B6B13F4005FD9
:1041900004D0002CF7D101E04AF6FF74114B1B68E4
:1041A000012B03D1FFF7B6FF054600E0002514B947
:1041B000002D08BF042540F2FF5000F091FC074B92
:1041C0001B7813F0FF0F1DBF044B1878C0B22846B0
:1041D00038BD00BF2071002028710020F870002039
:1041E000008001402C71002038B5254B1B68B3B905
:1041F000244B1B689BB9244B1B7813F0FF0F0ED187
:104200004AF6FF731E4A12684AB91E4A126832B94A
:104210001D4A127812F0FF0F01D1013BF2D10022AA
:10422000174B1A60194B5B6B13F4805F0AD04AF688
:10423000FF74013C154B5B6B13F4805F04D0002CC2
:10424000F7D101E04AF6FF74114B1B68012B03D133
:10425000FFF760FF054600E0002514B9002D08BFF8
:10426000042540F2FF5000F03BFC074B1B7813F095
:10427000FF0F1DBF044B1878C0B2284638BD00BFE1
:104280002071002028710020F8700020008001407B
:104290002C710020D8B138B505460E480E4B1B686E
:1042A0001B0403600D244460402383600023C3602B
:1042B0004FF48063036100F0C5FB2046FEF7C6FFA4
:1042C000044630B900F0DAFB2860204638BD2620CD
:1042D000704738BD307100202471002000B583B0D4
:1042E0000023019301238DF803309DF80330DBB2E6
:1042F000012B18BFFF2008D101A8FFF7CBFF18B989
:104300000198C0F3432000E0FF2003B05DF804FBF8
:1043100008B5FFF7E3FF042804D0FF280CBF0220F4
:10432000012008BD002008BD08B54FF4807000F0E2
:10433000DDFB50B10022254B1A704FF4807000F065
:10434000DFFB0122224B1A6037E0022000F0CEFB97
:1043500030B1022000F0D4FB02221C4B1A702CE07A
:10436000082000F0C3FB30B1082000F0C9FB042294
:10437000164B1A7021E0202000F0B8FB30B120204D
:1043800000F0BEFB0622114B1A7016E0102000F060
:10439000ADFB30B1102000F0B3FB05220B4B1A70BF
:1043A0000BE04FF4007000F0A1FB30B14FF400704F
:1043B00000F0A6FB0722054B1A7000214CF23A30A0
:1043C00000F02CFB014B187808BD00BFF8700020EE
:1043D0002871002008B5064B1A68064B13402BB114
:1043E0000122054B1A60054800F070F908BD00BFB6
:1043F00000040240002000102071002000F0001096
:1044000008B54FF496704AF051FEFDF7F5FA08BD75
:10441000EFF3108072B6704780F31088704715482C
:10442000FF210170002080F3098813484FF080516C
:10443000016062B6FEE772B6EFF3098030B1A0F119
:10444000200080E8F00F0D4C2468206000B50C4877
:1044500080475DF804EB094C0A4E366826603068E8
:1044600090E8F00F00F1200080F309884EF0040E70
:1044700062B6704722ED00E004ED00E0F873002022
:1044800081450008CC7200202DE9F04107460E4618
:1044900015469846069C2246432118461EF01CFBF2
:1044A00024F003000438404420F007004FF08073EC
:1044B00040F8043C40F8087C40F80C6C4FF0123394
:1044C00040F8103C4FF0033340F8143C4FF00233F7
:1044D00040F8183C4FF0013340F81C3C40F8205C99
:1044E0004FF0113340F8243C4FF0103340F8283C93
:1044F0004FF0093340F82C3C4FF0083340F8303C83
:104500004FF0073340F8343C4FF0063340F8383C66
:104510004FF0053340F83C3C4FF0043340F8403D49
:10452000BDE8F081024A536843F0805353607047FE
:1045300000ED00E0024A536843F080535360704737
:1045400000ED00E04FF47A7303FB00F0C009704700
:10455000C001044BA3FB00308009002808BF0120E4
:10456000704700BFD34D621008B54AF081F8802033
:104570004AF0F6F9FDF794FA4AF092F808BD00BF48
:10458000704700BF704700BF704700BF704700BF53
:1045900008B50A4B1B68DB09013BB3F1807F09D2E8
:1045A000074A5360F021074B83F8231000239360E0
:1045B0000723136004484AF0DBFB08BD24000020F9
:1045C00010E000E000ED00E0D0450008704700BFBB
:1045D000486F6F6B5F49646C6553746172742E0D24
:1045E0000A00000040F0BF6040F40030014BD8608A
:1045F000704700BF00ED00E0C378FBB1154BDA68EF
:10460000D243C2F30222C2F10401437803FA01F15A
:104610000F23D340827813400B4302781B01DBB297
:104620000D490A4482F800330378580903F01F0348
:10463000012202FA03F341F82030704703785A0947
:1046400003F01F03012101FA03F32032024941F86C
:104650002230704700ED00E000E100E010B4036894
:1046600023F4FF4323F070038C680A6A14430A6939
:1046700014434A6914438A691443CA6914434A6A51
:1046800014438A6A224313430360CB6843600B6878
:1046900083604B68C36010BC704700BF21B10368E2
:1046A00043F0010303607047036823F001031B0418
:1046B0001B0C0360704700BF1AB103681943016007
:1046C0007047036823EA01010160704710F0805FC2
:1046D00014BF024B024B5860704700BF00040240F9
:1046E0000000024010F0805F14BF044B044B1B68B5
:1046F000034214BF01200020704700BF00040240A5
:104700000000024010F0805F14BF024B024B586063
:10471000704700BF000402400000024010B401686E
:10472000426883681A43C3681A4303691A4343699A
:104730001A4383691A43C3691A43036A1A43436AD3
:104740001A43836A1A43C36A1A43036B13434FF035
:10475000204242F821308368082B06D103689B0071
:1047600013441A6842F040021A6001680131426B3A
:10477000146893692343546843EA0413946843EA32
:104780000423D46843EA0443146943EA0453526996
:1047900043EA02634FF0204242F82130C36AB3F586
:1047A000804F14D10168826B10689369034350688D
:1047B00043EA0013906843EA0023106943EA005378
:1047C000526943EA0263064A42F8213005E0026872
:1047D0006FF07041024B43F8221010BC704700BFCD
:1047E000040100A039B1800000F12040036843F0CB
:1047F000010303607047800000F120400268024B13
:1048000013400360704700BFFEFF0F00F0B4CB7889
:1048100003F00F0513F0100F1CBF8B781D430B78AE
:10482000DBB10668002301229A400C8832EA0404B6
:104830000FD19C000F27A74026EA070605FA04F4CB
:104840002643CC78282C01D1426102E0482C08BFD5
:1048500002610133082BE6D106600B88FF2B1DD9BE
:104860004668002303F108040122A2400C8832EAC2
:1048700004040FD19C000F27A74026EA070605FA7B
:1048800004F42643CC78282C08BF4261CC78482C0D
:1048900008BF02610133082BE4D14660F0BC7047C9
:1048A000016170474161704710B4274B5B6803F0AA
:1048B0000C03042B05D0082B06D0F3B9234B03605F
:1048C0001DE0224B03601AE01F4A53685268C3F38D
:1048D0008343023312F4803F04D11D4A02FB03F3E9
:1048E00003600CE0184A526812F4003F14BF184AE3
:1048F000164A02FB03F3036001E0144B0360124904
:104900004B68C3F30313134CE35CDAB20368D34080
:1049100043604A68C2F30222A25CD2B223FA02F2D6
:1049200082604A68C2F3C222A25CD2B2D340C360A2
:104930004A68C2F3813208498A5CD2B2B3FBF2F30F
:10494000036110BC704700BF0010024000127A00E3
:1049500000093D002C0000202800002021B1054B5B
:104960005A69104358617047024A536923EA0000AC
:10497000506170470010024021B1054B9A69104305
:1049800098617047024A936923EA0000906170477A
:1049900000100240064B00221A605A609A60DA60EA
:1049A0005A629A62DA6203499963DA63704700BF18
:1049B00000800140FF07C00010B40A4C62688168A3
:1049C00043681943C36819430368194303691943CA
:1049D00022F4FD4323F07F030B43027D1343636006
:1049E00010BC704700800140014B1860704700BF49
:1049F000A0003042044B1A6822F003021A601A68C1
:104A000010431860704700BF00800140024B1868D7
:104A100000F00300704700BF0080014021B1054B4A
:104A2000DA6B1043D8637047024AD36B23EA000065
:104A3000D063704700800140014B1860704700BF91
:104A40008C05304210B40368084A9360D36823F49D
:104A5000FF6323F00703446881680C43C1680C437B
:104A6000016921430B43D36010BC704700800140B3
:104A7000014B1869C0B270470080014082B000232A
:104A80000193034B03440193019B186802B07047E4
:104A90001480014010B4036808494B6243688B627C
:104AA000CB6A23F0F7028468C3681C43036923437D
:104AB000406903431343CB6210BC70470080014040
:104AC000014BD3F88000704700800140034B5B6BC3
:104AD000034214BF01200020704700BF0080014046
:104AE000014B9863704700BF00800140034B5B6B34
:104AF000034214BF01200020704700BF0080014026
:104B0000014B9863704700BF0080014010B40388D8
:104B100003F441540A884B8813438A881343CA8894
:104B200013430A8913434A8913438A891343CA8961
:104B3000134323439BB20380838B23F400631B0442
:104B40001B0C83830B8A038210BC704729B1038836
:104B50009BB243F0400303807047038823F0400377
:104B60001B041B0C0380704781817047808980B2D1
:104B7000704700BF0389194214BF0120002070470D
:104B800010B5FDF745FAB0B150F0FCF998B1FDF75A
:104B900041FA044678B150F0ADF8A2686168520855
:104BA000490820464EF0B0FDFDF7FEFA18B150F06E
:104BB0009BF8FDF701FB10BD0020704700207047F7
:104BC000002070470020704700207047C38842894A
:104BD0009A1A002AB8BF5242838801895B1A002BB7
:104BE000B8BF5B429A42B4BF00220122024B1A6056
:104BF000014B1868704700BFE471002010B5054CE8
:104C00001422014620461DF0F1FE2046FFF7DEFF8C
:104C100010BD00BFEC710020002A4ED02DE9F041FC
:104C20001546274CB4F90460B4F906C0B4F90C80F9
:104C3000B4F90EE0464501D0F44506D14FF0FF33FC
:104C40002B606B600020BDE8F081B2F90040B2F942
:104C500004201C4B1B68ABB15038CCEB020707FBA0
:104C600000F0CCEB0E0790FBF7F728373FB2503936
:104C7000A01B00FB01F1C6EB080391FBF3F3283303
:104C80001BB215E05038A41B04FB00F0C6EB08066D
:104C900090FBF6F6283637B2A1F15003CCEB0202B6
:104CA00002FB03F2CCEB0E0392FBF3F328331BB2AF
:104CB0002F606B600120BDE8F0810020704700BFCD
:104CC000EC710020E471002003291FD8DFE801F017
:104CD000020910170E4B02689A804268DA800120A0
:104CE00070470B4B02681A8142685A810120704755
:104CF000074B02689A814268DA8101207047044BB1
:104D000002681A8242685A82012070470020704768
:104D1000D0710020B0B138B5044600204FF0D4FF68
:104D2000054601204FF0D0FF282323606360A5F1E2
:104D30002802A260E360226128386061A361E0611B
:104D4000042038BD0420704708B50248FDF728FA52
:104D5000012008BDB04E000810B50F498A88CB88E5
:104D600013440A8913444A8913448A891344C8891D
:104D700003440A8A1A444B8A13444B80074C14227A
:104D800020461DF033FE2046FFF720FF0448FDF7C4
:104D900007FA012010BD00BFD0710020EC71002087
:104DA000D04E000808B50022044B1A60044B1B6863
:104DB0000BB11B689847012008BD00BFE8710020B7
:104DC0000C00002010B5114C23785B002370104BB1
:104DD0001B685B68984723781843C0B2207000F0C6
:104DE0000300012807D010B1022808D00AE00022F1
:104DF000084B1A6006E00122064B1A6002E002220C
:104E0000044B1A60034B186810BD00BF00720020ED
:104E10000C000020E871002008B5024B1B689B685D
:104E2000984708BD0C00002008B5024B1B68DB68E2
:104E3000984708BD0C00002008B5024B1B681B6991
:104E4000984708BD0C00002008B5024B1B685B6941
:104E5000984708BD0C00002008B50448FFF7F4FF90
:104E60000348FDF79DF9012008BD00BFD071002067
:104E7000104F000800B583B0FFF7A4FF012809D147
:104E80006846FFF7D1FF78B101220199009859F0E7
:104E9000F9FF09E0022807D168464EF067FC0022BE
:104EA0000199009859F0EEFF03B05DF804FB00BFD4
:104EB000546F75636850616E656C43616C696272B2
:104EC0006174696F6E53746172742E0D0A00000074
:104ED000546F75636850616E656C43616C69627292
:104EE0006174696F6E46696E6973682E0D0A000001
:104EF000546F75636850616E656C43616C69627272
:104F00006174696F6E4661696C65642E0D0A0000FC
:104F1000546F75636850616E656C43616C69627251
:104F20006174696F6E537563636565642E0D0A0065
:104F300070B506460C46154619464EF0E3FFA5F13E
:104F400013032A46214630464CF0ECF805F11303D2
:104F50002A46214630464CF0E5F804F113032A4670
:104F6000214630464CF0B6F8A4F113032A462146F8
:104F700030464CF0AFF806232A46214630464BF027
:104F8000BBFA70BD2DE9F04FA3B000205BF0F4FF39
:104F90000390002800F048815BF0F4F901215CF0F7
:104FA000DFFC00204FF090FE044601204FF08CFE05
:104FB00000902346002211461EA84FF0DBFAFFF7AF
:104FC000C3FE002800F01D810EA8FFF7A3FE834654
:104FD0001EA906A84FF020FBC8231A461946039CB9
:104FE00020464EF09DFEC8230022114620464EF07A
:104FF00097FE014620464EF081FF06A920464CF060
:1050000037FEBBF1000FD8BF002465DD0EE10023A1
:1050100001931A23009306AB4FF0FF328C49DDF861
:105020000C8040464DF0FCF8002D0DDD7B683A68A1
:10503000143A0A92143B0B9328230C930D930DEB17
:10504000030140464CF014FE0836A8460EAB53F858
:1050500035903746D6F804A000231A46FF2103985E
:105060004EF05EFE0346524649460398FFF760FF46
:10507000322001F08BFC02E0322001F087FCFFF7C8
:10508000A1FE0128F8D000E00024642001F07EFC9D
:10509000FFF798FE0128F7D10134052CF5DD0EABA2
:1050A00053F83880D7F8049000231A46FF21DDF822
:1050B0000CA050464EF034FE03464A464146504648
:1050C000FFF736FF04A8FFF7A7FE294604A8FFF75D
:1050D000FBFD0135AB459AD1FFF73EFE0BF1FF33E7
:1050E00022AA02EBC30353F84C2C53F8503C143B58
:1050F0000A93A2F114030B9328230C930D930DEB49
:105100000301039F38464CF0B3FD00204FF0DCFD57
:10511000054601204FF0D8FD064600231A46FF2120
:1051200038464EF0FDFD0346721069103846FFF711
:10513000FFFE322001F02AFC02E0322001F026FCC2
:10514000FFF740FE0128F8D0FFF73CFE012832D1DE
:105150000134022C30DD04A8FFF75EFE00204FF082
:10516000B3FD044601204FF0AFFD04AA01462046DE
:10517000FFF752FDFFF770FE06A9039E30464CF084
:1051800077FD002401941A25009506AB4FF0FF32FD
:10519000304930464DF044F82022214606A84FF011
:1051A00053FA0194009506AB4FF0FF322A4930467E
:1051B0004DF036F807E00024642001F0E7FBC3E778
:1051C000322001F0E3FBFFF7FDFD0128F8D020229B
:1051D000002106A84FF038FA002301931A23009308
:1051E00006AB4FF0FF321D4903984DF019F86424C7
:1051F000322001F0CBFBFFF7E5FD012801D0013C97
:10520000F6D106A9039C20464CF032FD1448FCF769
:10521000C7FF214600205BF01DFF5BF0B3F80021C3
:105220005CF09EFB01200FE000200DE000250195C1
:105230001A23009306AB4FF0FF32054903984CF058
:10524000EFFF0EAE2C4600E723B0BDE8F08F00BFA5
:105250006452000890520008C0520008DC52000856
:10526000FC52000854006F00750063006800530092
:1052700063007200650065006E002000430061005D
:105280006C0069006200720061007400650000003B
:1052900054006F0075006300680020005300630035
:1052A0007200650065006E002000430061006C0024
:1052B0006900620072006100740065000000000077
:1052C0002A002A0020005300750063006300650077
:1052D0007300730020002A002A00000054006100BF
:1052E00070002000530063007200650065006E00CE
:1052F000200045007800690074000000546F756359
:105300006853637265656E2043616C696272617493
:10531000652045786974210A0000000038B513F053
:10532000010F07D041F21E430B60224B8B60224BD2
:105330004B6005E000230B60204B8B60204B4B60E3
:1053400012F0006F35D00C466FF009031A4619466B
:1053500020684EF0C3F920606FF009031A46194621
:10536000A0684EF0BBF9A0606FF009031A46194619
:1053700060684EF0B3F960606FF009031A46194691
:10538000E0684EF0ABF9E0600E4D294620684EF023
:105390008BF920602946A0684EF086F9A060294666
:1053A00060684EF081F960602946E0684EF07CF953
:1053B000E06038BDD2AF960078500A00EBE6E60018
:1053C000321E1400807878002DE9F0478AB0064636
:1053D0000F469046C36803F00303012B47D184684E
:1053E00000F114030FCB0AAD05E90F0035693968E8
:1053F00020464EF089FC014620464EF07FFD79683C
:1054000020464EF081FC014620464EF07BFDB968F7
:1054100020464EF079FC014620464EF077FD15F00F
:10542000010F10D00122114606A84FF00DF90023FC
:105430000193CA23009306AB4FF0FF32414620464A
:105440004CF0EEFEFBE0396820464EF05DFC014674
:1054500020464EF053FD00230193CA23009306AB70
:105460004FF0FF32414620464CF0DAFEE7E0846818
:1054700002AD00F114030FCB85E80F0036690AADC9
:1054800005E90F0016F0010F29D0B96878684EF0D1
:105490000BF96FF00E031A4619464EF01FF9BD685E
:1054A000014620464EF030FC014620464EF02AFDD3
:1054B00006A920464CF0C0FB4FF0FF32114606A86B
:1054C0004FF0DEF8294620464EF01EFC01462046ED
:1054D0004EF01CFD06A920464CF0CAFB80E0BD68DA
:1054E000294678684EF0E0F86FF004031A46194632
:1054F0004EF0F4F8014620464EF006FC01462046E8
:105500004EF000FD06A920464CF096FB4FF0FF320E
:10551000114606A84FF0B4F837231A461946B86862
:105520004EF0DCF8014620464EF0EEFB01462046E8
:105530004EF0E8FC06A920464CF07EFB4FF0FF320F
:10554000114606A84FF09CF8099BC3EBC3031B113F
:1055500009930F231A46194628464EF0BFF8814694
:105560006FF002031A46194628464EF0B7F88246F5
:10557000494620464EF0C8FB8146514620464EF033
:10558000C3FB0123009303464A4606A920464CF07C
:1055900077FB099A002106A84FF056F8059B039A5D
:1055A0001344079A9B1A023B09936FF006031A46AD
:1055B000194628464EF092F881466FF00B031A46C2
:1055C000194628464EF08AF8494620464EF09CFB84
:1055D000014620464EF09AFC06A920464CF048FBB6
:1055E00016F0010F18D00122114602A84FF02CF836
:1055F000396820464EF088FB014620464EF07EFC7E
:10560000002301930A23009302AB4FF0FF3241467F
:1056100020464CF005FE12E0396820464EF074FB3F
:10562000014620464EF06AFC002301930A230093B2
:1056300002AB4FF0FF32414620464CF0F1FD0AB07C
:10564000BDE8F087004870473C00002038B513F0F3
:10565000020F08D000230B60244B8B60244B4B605F
:10566000244BCB6007E000230B60234B8B60234B64
:105670004B60204BCB6012F0006F35D00C466FF0C2
:1056800009031A46194620684EF028F820606FF08A
:1056900009031A461946A0684EF020F8A0606FF082
:1056A00009031A46194660684EF018F860606FF0FA
:1056B00009031A461946E0684EF010F8E060104DF4
:1056C000294620684DF0F0FF20602946A0684DF083
:1056D000EBFFA060294660684DF0E6FF6060294658
:1056E000E0684DF0E1FFE06038BD00BFFAD2C800CD
:1056F0005A321400BE827800FAFAFA00321E0A000A
:10570000807878002DE9F0478AB080460F469146B0
:10571000846806AE00F114030FCB86E80F0002ADDB
:1057200085E80F006FF00102114628464EF0A8FFF1
:10573000DDF814A0CDF810A0796820464EF0E4FA08
:10574000014620464EF0DEFB294620464CF074FA16
:105750004FF0FF32114628464EF092FF37231A468B
:105760001946B8684DF0BAFF014620464EF0CCFA13
:10577000014620464EF0C6FB294620464CF05CFA16
:105780004FF0FF32114628464EF07AFFB968F868AC
:105790004DF08AFF014620464EF0B6FA01462046FB
:1057A0004EF0B0FB294620464CF046FA4FF0FF324F
:1057B000114628464EF064FFB96820464EF0A4FA20
:1057C000014620464EF0A2FB294620464CF050FAF6
:1057D000396820464EF098FA014620464EF08EFB7E
:1057E000049B02991944002500952B462A46C1F1D5
:1057F000FF2101F57F01FE3130464EF055FF019546
:105800001223009333464FF0FF32494620464CF0B6
:1058100007FDD8F8103013F0020F2AD04FEAEA0142
:1058200049420A4602A84EF02BFFF96820464EF086
:105830006BFA014620464EF069FB0A2202A9204677
:105840004CF036FC7968F8684DF02EFF6FF01303CA
:105850001A4619464DF042FF014620464EF054FAD2
:10586000014620464EF04EFB0A2202A920464CF08B
:10587000D1FA0AB0BDE8F087004870474400002024
:1058800070B594B01646846810A900685AF004FDFB
:1058900000251095119503AB4FF0FF32314620469D
:1058A0004EF010F8BDF80C20129B9342A8BF13468F
:1058B000ADF80C30BDF80E20139B9342A8BF1346E1
:1058C000ADF80E304FF0FF33009333462A460A21DD
:1058D00020464CF081FCBDF80C10A9420CBF2A46B2
:1058E0000222C2F10A030493BDF80E305B080133B3
:1058F00005930120069007930890139D013D09959B
:10590000129801380A900B950C900D930A310A44B5
:105910000E920F9320464EF0FDFA0DF1090300930D
:105920000DF10A030DF10B02014620464EF00AFA72
:105930009DF80B009DF80A301B0243EA00409DF8D9
:10594000095023231A46194628434DF0C7FE014645
:1059500020464EF0D9F9014620464EF0D3FA0623F0
:10596000009304AB0022114620464BF025FC04AA0C
:10597000002304A850F83310013940F8331051685F
:105980000139516001330832062BF2D19DF80B002A
:105990009DF80A301B0243EA00409DF809506FF061
:1059A00022031A46194628434DF098FE0146204628
:1059B0004EF0AAF9014620464EF0A4FA06230093C1
:1059C00004AB0022114620464BF0F6FB14B070BD2C
:1059D00038B500230B60204B8B60204B4B60204B75
:1059E000CB6012F0006F35D00C466FF009031A46F9
:1059F000194600204DF072FE20606FF009031A4630
:105A00001946A0684DF06AFEA0606FF009031A46BF
:105A1000194660684DF062FE60606FF009031A4637
:105A20001946E0684DF05AFEE0600E4D29462068A8
:105A30004DF03AFE20602946A0684DF035FEA0608A
:105A4000294660684DF030FE60602946E0684DF000
:105A50002BFEE06038BD00BFD2D2D20046464600E1
:105A60009696960080787800004870474C00002099
:105A700040F614230B60034B8B60034B4B60034BCE
:105A8000CB607047F3EBE800F0D2C800FABEAA0082
:105A90002DE9F04FC9B007460E46D0F800B0846833
:105AA00044AD00F114030FCB85E80F0000231A4624
:105AB0004FF4C771584659F091FE2B4602464FF4F9
:105AC000CC71584659F08AFE459B002B1BDD47934D
:105AD00000214591B0684DF0E7FD014620464EF0AB
